:020000021000EC
:108000000040002055000200910002009300020091
:108010000000000000000000000000000000000060
:1080200000000000000000000000000095000200B9
:10803000000000000000000097000200990002000C
:108040009B00020095AD01000D0702009B0002009D
:108050009B00020000000000CD0002009B00020017
:108060009B000200E9080200950502009B00020047
:108070009B0002009B0002009B0002009B0002008C
:108080009B0002009B0002009B0002009B0002007C
:108090009B0002007DFC010001F101009B00020039
:1080A0009B0002009B000200000000000000000096
:1080B00000000000000000000000000000000000C0
:1080C00010B5064C2378002B07D1054B002B02D0AE
:1080D000044800E000BF0123237010BDB020002041
:1080E0000000000050760200044B10B5002B03D0B6
:1080F0000349044800E000BF10BDC0460000000076
:10810000B420002050760200164B002B00D1144BF7
:108110009D46402292029A1A924600218B460F46B3
:108120001348144A121A0EF072F90F4B002B00D0AC
:1081300098470E4B002B00D09847002000210400E8
:108140000D000D48002802D00C4800E000BF0AF0E6
:1081500013FB200029000DF01DFF0AF0F7FAC046BE
:1081600000000800004000200000000000000000A7
:10817000A8200020182900200000000000000000B6
:108180000122024B84B01A7004B0704746280020C8
:108190000122024B84B01A7004B0704747280020B7
:1081A00010B50400034B036040300BF050F8200082
:1081B00010BDC046C0650200F0B585B01F000AAB17
:1081C0001B880600029115000393002F1BD0282066
:1081D0000EF0CEF86B4604001989039BAAB20093F7
:1081E0003B000AF0D4FF336821005B6830009847F9
:1081F000002806D020000AF0E0FF20000EF0ADF8C5
:10820000024805B0F0BD0248FBE7C04616FCFFFF80
:1082100017FCFFFFF7B5174B174F013818603B6885
:10822000164A0193142343430125D3180022AC4678
:108230001400134E316800280DDB002299589C1859
:1082400004326161142AF9D10F3A01920138143BCA
:1082500064466246EFE7002C09D0019B3B60002A90
:1082600002D03160002C01D0024B1860F7BD002A0B
:10827000FCD0F6E7BC240020C0240020CC20002045
:1082800040210020002370B50526114C236023688F
:10829000042B1BDC00230F4D2B602B682068042B64
:1082A00011DC1AB2734301B21B180B489B001B5818
:1082B0000A48012B05D1FE3301F0DEF82B680133AB
:1082C000EAE70023F8E701302060E0E770BDC04630
:1082D000BC240020C0240020CC200020A8220020A4
:1082E000F0B5C02685B0884903A801F047F8782288
:1082F00003A9864802F0AAF903A80AF0A8FF844C53
:10830000844B0322012100962000FFF755FF824B8A
:108310000322022100962000FFF74EFF7F4800F065
:108320000FFA05257E4C7F4E23687F485A1E12B2F5
:108330000023F15E002301F09FF8FFF7A3FF7B4BC2
:10834000186805235B425843963000F0E5FD7849F4
:108350000B78002B5AD0336876485A1E23686B433B
:108360009B189B001B58002B50D1002A4EDB32601B
:108370000B706C4E0023E25E0023F15E6A48FF231F
:1083800001F07AF80520694B40421B68584396304B
:1083900000F0C2FD2A0023683168581C4243654F33
:1083A00052189200D259002A43D1042B41D02060A8
:1083B00004221424604B1A605F4B18680028B1DB5C
:1083C000210041435B4A8B58012B1AD153185E6838
:1083D000012E16D19E68012E13D1DE68012E10D118
:1083E0001E69012E0DD1514F3E6801363E600026B8
:1083F0008E505E609E60DE601E61504B1D60FFF718
:1084000009FF4D4A1368013B1360D5E74C490B78CF
:10841000002BAED04348474E03685A1C23686B4379
:108420009B189B009B59002BA3D1042AA1DC02605E
:108430009EE701226B435B183E499B00CA500AF03D
:10844000BFF9290008F0CAFC00224B1D39489B00E7
:10845000C35831602260012BAAD1FE3309B23248E1
:1084600001F00AF8FA20C00000F056FD354903A8D3
:1084700000F084FF782203A9244802F0E7F803A85B
:108480000AF0E5FE294B03A819680AF0FDFE7822E0
:1084900003A91E4802F0DAF803A80AF0D8FE2A4918
:1084A00003A800F06BFF782203A9184802F0CEF869
:1084B000E42503A8DD260AF0CAFE6D00B600174CBD
:1084C00060590BF054F9214B984205DDA059002862
:1084D00009D10AF067FDF2E760590BF048F91C4B2F
:1084E0009842F3DBEBE704F087FD836D9B07F0D543
:1084F000A0590CF061FC036813215B6A9847642063
:108500000DF042FEE5E7C04638700200342200203C
:10851000142200208181010091810100442100206A
:108520003821002034210020A82200203C210020F6
:1085300046280020CC20002030210020BC24002030
:1085400047280020427002004E700200EE02000038
:1085500012FDFFFF10B5054C200000F039F8044A69
:10856000044920000DF0FDFE10BDC046442100204E
:108570000020002079850100CA23144A9B0010B511
:10858000C2501C330400C0180AF061FED0239B00C7
:10859000E0180AF05CFE20009130FF3001F0F0FAA4
:1085A00020006930FF3001F0EBFA2000F03001F0DC
:1085B00069FE2000D03002F0DDF92000643007F0C1
:1085C000B5FC201DFFF7ECFD200010BD4C6A020039
:1085D0001423F0B5040093B000931922182104303D
:1085E00002F028FC2200250026006432B435132155
:1085F00010001092B83607F0A5FC28000CF038F8EF
:1086000000221E2130000BF0D8FC2000D03002F0F8
:10861000D1F92200F03211920621464A119801F058
:1086200055FE20000027012369301A000097112110
:10863000FF3001F0B1FA20009130009701230222AF
:108640001A21FF3001F0A8FA2000B9301A230121C5
:108650000222FF3002F06AFA300001F0A9F8E422A9
:108660005200A050300001F0F1FAE6235B00E05028
:108670000100E42220005200D130119BA258009545
:10868000FF3001F033FD2000E13029001C22FF30D3
:1086900002F068FD192320000F93013B0E93013B6C
:1086A0000D93013B0C93013B0B93013B0A93013B60
:1086B0000993013B0893013B0793013B0693013B60
:1086C0000593013B0493013B0393013B0293013B60
:1086D0000193F930013B082200930721013BFF3051
:1086E0000BF08CFCCA239B00E018290003F04CFD22
:1086F000D3239B00E0181D2102F0E8FADD239B0044
:10870000E7501098277003210DF067FB230022002B
:10871000200009499C33A0321C6011605760074A51
:1087200080305A610221012207F082FD200013B03F
:10873000F0BDC046C8650200592E0200432E02005B
:108740000123F0B506788FB004001E4000D082E00F
:108750000300D0331800039300F0C0FA00F0E6F9EC
:1087600028200DF005FE050010300AF001FE6C4BCC
:1087700018202B600DF0FCFD07006A4B04600822F6
:1087800031000C300C930D960DF041FE0CA9381DF4
:1087900008220DF020FE644BAF607B611223EE6077
:1087A000AB802E626E622900039802F077F80028F1
:1087B00005D028000AF001FD28000DF0CEFD0123B0
:1087C00022785A49134323702300B43318000593C9
:1087D0000BF054FF5649049005980BF04FFF00250D
:1087E0000690642000F098FB2F002E0023006933D0
:1087F000FF33180007930AF0D4FF00282DD1049B03
:10880000002B33D1069B002B30D1DD2549494A4846
:10881000AD0000F061FC6359002B1CD100F09AF808
:1088200001000AA800F0AAFD0BA80AF088FBCA23E1
:108830009B00E018069B0BAA0AA90093039B03F078
:10884000F9FC0BA80AF003FD0AA80AF000FDCC23EE
:108850009B00E35863510FB0F0BD20009130FF3012
:108860000AF09FFF0028CAD0182EC8DC200065300F
:1088700039B22AB2FF23FF30013700F0FDFDFFB20D
:10888000322000F049FB0136052F02D100270135C7
:10889000EDB2049B192E06D0002BA7D023490598D2
:1088A00002F0F4FB01E0002BF8D104980DF055FD27
:1088B00006980DF052FD1F491F4800F00DFCCA2319
:1088C0009B00E3180893DD239B00E3580993002BDA
:1088D0001ED100F03FF801000AA800F04FFD0BA8E0
:1088E0000AF02DFB01230BAA0AA900930898039B09
:1088F00003F0A0FC0BA80AF0AAFC0AA80AF0A7FC47
:10890000CC239B00E3580993DD23099A9B00E25096
:108910002100079AF031089803F086FE66E7C0460A
:10892000FD030000CB2E02008B2E0200947002008B
:108930009F70020000200020001C0020BFF34F8F1A
:10894000024B034ADA60BFF34F8FFEE700ED00E011
:108950000400FA05F0B58DB005AF192215493800AD
:108960000DF039FD0022144B05245A718022520566
:10897000566E012225000194029203930199300062
:1089800008F042F90800029908F0B8F8019B039931
:108990006B430193029B361A6B430293631E2C1B9D
:1089A0006C433C19225C1C1ECA54E7D108000DB070
:1089B000F0BDC046AF70020048280020F0B597B067
:1089C00018220021060010A80DF021FD132110A887
:1089D0000DF04BFB032110A80DF0DDFB4C4B1B6889
:1089E000002B00D10133DBB202934A4A012300215C
:1089F0000BA807F08BFD484B9E4200D9002672B6AB
:108A0000464B64211D68464B30000793052408F04F
:108A1000FFF860435030281808900A21300008F011
:108A2000F7F80A2108F0DAF9614350316918099121
:108A300030000A2108F0D2F980236143002450312C
:108A400069189B010A910193029B002B5DD00025C0
:108A500000272E1F07AB9B190593032C03D18023FE
:108A600000249B01019307AB5B592E4A03936300DB
:108A7000D31804930023190006205843049A1618AB
:108A80007678B4466246039EB25C10269446049AF9
:108A9000105C62460641164202D001209840014314
:108AA0000133092BE8D1C9431F4B059A090119402D
:108AB0001268039B934225D1312F23DC00210BA8A0
:108AC0000DF022FCFA23159A1199DB00106801427F
:108AD0001BD0013B002BF9D1019B01345B000193BA
:108AE000FA230137E4B25B009F42B6D10435102D62
:108AF000AED1074B1B68002BA6D0029F013FFBB2F3
:108B00000293A1E7019B1943D9E7FFF717FFC0467E
:108B1000C8240020F0FF0000E7030000042000202C
:108B2000FE700200C8700200F01F0000F8B50023BC
:108B3000124C23600AF024FA002808D004212000F7
:108B40000AF01AFA002801D00D4B2360F8BD01226B
:108B5000A12704250B4B0C491A602268FF004860CE
:108B60004E68002EFCD0DE591202013D3243002D2A
:108B7000F5D1226001225A60E8E7C046C4240020F3
:108B8000ED5EBC0B00D00040FCD000400B4B70B53C
:108B90001C68002C10D0656D00F0ACFBA36C0029A4
:108BA00001D1834206D820000AF01DFA04492000B2
:108BB0000AF007FA2C00ECE770BDC046D024002074
:108BC000F0240020F0B593B007932A4B04AC1E6844
:108BD000049005910692002E4AD0274B258867887D
:108BE0001C6800230293002C2ED0636D234803934E
:108BF000A36C9AB2A36C1B0C99B2854214D1204885
:108C0000824211D1002B01D0B9420BD1029B002B23
:108C100008D120000AF0E7F91A4920000AF0D1F93A
:108C200001230293039CDEE7002A01D09542F9D18B
:108C3000002B01D0B942F5D120000AF0D4F9114936
:108C400020000AF0BEF9EDE70F4BEB18012B0FD90E
:108C500010233A00009329000C4B08A80AF097FA59
:108C6000336808A99B683000984708A80AF0A5FA5D
:108C700013B0F0BDCC240020FC240020FE03000033
:108C8000FF030000F024002002FCFFFFC58B010061
:108C900010B572B60B4B1C68002C08D020000AF0EF
:108CA000A2F90023E364084B2000E36310BD62B621
:108CB0005C200DF05DFB5C22002104000DF0A7FBA1
:108CC000EFE7C046F424002000400020024B187853
:108CD000012318407047C0464E280020F7B5060013
:108CE000FFF7F4FF051E33D11A4C2660FFF7D0FFC3
:108CF000194B1A4918600AF064F9FFF7C9FF184BBD
:108D00001860184B4363184B8363206800280ED00B
:108D1000C027164E2A00330015490097FFF74CFA7A
:108D2000009733002A0013492068FFF745FA0C200A
:108D30000DF01EFB0023838083710F4B03600F4BEC
:108D4000836000F0EFFA01230D4A11780B43137092
:108D5000F7BDC046CC24002000250020F0240020D0
:108D6000F8240020FC3F0020AD300200C58B01003C
:108D7000FF030000FE030000E86502008D8B010088
:108D80004E280020F7B506000D00170001930028BB
:108D900002D100242000FEBD0029FAD0FFF778FFA1
:108DA000041EF6D0074B019A436306604560876056
:108DB000054B002A00D0054BA363054920000AF0AB
:108DC00000F9E7E7FC3F0020773002009530020011
:108DD000F0240020024B1868434258417047C046B7
:108DE000F0240020002310B504499C006258002A9A
:108DF00001D00133F9E76050100010BDD8240020E5
:108E0000002310B5044A99008C58844201D00133E4
:108E1000F9E70020885010BDD824002010B50024A8
:108E2000084BA200D058002802D003685B6898471E
:108E30000134062CF4D1044B1B68002B00D120BF59
:108E400010BDC046D8240020F0240020F8B5FFF75C
:108E50003DFF00281CD02A4D2C68E36CDA0718D59A
:108E600002273B43E364274B1E680423F26C300067
:108E70001343F364636BF3630AF0DBF83000716C47
:108E800003F0C7FF2868C36C3B4201D003F0FBFF2F
:108E9000F8BD1D4F1D4E3A683168002A1ED1296069
:108EA0002A68914208D11B0706D52C60FFF7B6FF50
:108EB0003B68002BFAD02B6029688C42E8D03368DD
:108EC000994214D1124B4B63124B8B6320000AF072
:108ED000B0F82968626C4B6C20000DE0206DB84240
:108EE00003D1606D002800D002002A60D8E79C42C0
:108EF000ECD1002210004B6C03F04AFFC8E7C046DB
:108F000000250020D4240020F0240020F824002094
:108F1000FC3F0020AD30020070B50500FFF7D6FE23
:108F2000002803D128000DF02FF970BD0C4B1C68F0
:108F3000E36CDB0706D5FFF7ABFE0A4B1860002891
:108F400000D0040000F0D6F92D18A56420000AF026
:108F50004AF8054920000AF034F8FFF777FFE4E704
:108F600000250020D4240020D0240020F0B51E4B82
:108F70001E4F1C683B6885B006000391002B30D063
:108F8000FFF7A4FE00282CD0E36CDB070ED5FFF71B
:108F90007FFE174B051E186008D00AF024F815490B
:108FA00028000AF00EF82C00FFF750FF039B20006A
:108FB0001B043343A3640AF016F820000E490AF09C
:108FC00000F80E4B0024F318012B07D9C02300939F
:108FD000039A0B4B31003868FFF7EEF8200005B01C
:108FE000F0BD084CFAE7C04600250020CC24002044
:108FF000D4240020F0240020FC24002002FCFFFFE9
:10900000C58B010016FCFFFF10B5FFF75FFE0028BF
:1090100009D0054C206809F0E6FF0449206809F0F2
:10902000D0FFFFF713FF10BD00250020F42400201F
:10903000F7B507000D0000282ED0FFF747FE0028E7
:109040002CD00724164E3068C36C1C4007D0154A3C
:109050002900380009F0DEFF00242000FEBD03F0E7
:10906000FAFE02213268D36C1940019103D003212A
:109070008B43D364F1E701242343D3642800B8472A
:109080003268D36C1900A143D164019C5B07E4D51D
:10909000280009F0F7FFE0E7034CDEE7034CDCE7CC
:1090A000002500208530020017FCFFFF16FCFFFFA3
:1090B000020010B5014B12CB12C210BD04250020D6
:1090C000034B1A68034B1A607E225A607047C046F1
:1090D000042000200425002070B5114E3278022AA9
:1090E0001AD081421AD90C1A072C17D90D00032364
:1090F00005432B4012D172B60A4DD2005051AA1826
:1091000051608022A40812061443046032780132B0
:10911000327062B6180070BD0348FCE70348FAE7F6
:10912000502800200C25002013FCFFFF17FCFFFF38
:1091300070B5134C06002378124D002B0CD1124948
:1091400012482B70FFF7C8FF114B984202D11E2026
:10915000FFF734FC0123237000242B78A34209DDA0
:109160000C49E300C918300009F0A6FF002805D11A
:109170000134F2E71420FFF721FC002070BDC04647
:109180004F280020502800200038002018290020F7
:1091900017FCFFFF0C25002070B5002819D0104BDC
:1091A00010491C7800239C4216DDDA005558854290
:1091B00010D28A18526882420CD9041F2368002BEF
:1091C00002DC1E20FFF7FAFB802322681B061343F4
:1091D000236070BD0133E6E71E20FFF7EFFBF8E7E1
:1091E000502800200C25002070B5051E14DD0B4E04
:1091F0000B4C3368002B02D020680CF050FEFA2193
:1092000020680024074B89008361C462694335608C
:109210000CF04DFE200070BD0348FCE71C2500202B
:109220004C250020D192010017FCFFFFF8B5114F2B
:1092300006003D68002D0AD130200DF099F8040099
:1092400006F0DAFE0C4BA5612360E5623C600B4D35
:109250002B68002B09D110200DF08AF804000CF0C7
:1092600072FE20002C600CF048FE3000FFF7BCFFBF
:10927000F8BDC0464C250020F46D020048250020B2
:10928000014B18687047C0461C25002070B50D4C76
:109290002368002B03D00C4B1B68002B02D1062047
:1092A000FFF7C4FF20680CF03FFE02000749C31718
:1092B0000D684E685219734120680A604B600CF0CB
:1092C00039FE70BD482500204C250020A820002034
:1092D00010B5FFF7DBFF0024054BA200D058002893
:1092E00002D003681B68984701340A2CF4D110BDE2
:1092F0002025002010B5FFF7C9FFFA22034B92008A
:1093000018685968002307F0A9FD10BDA8200020A7
:1093100010B5FFF7BBFF024B1868596810BDC04677
:10932000A82000200B4B10B51B680400002B03D0B5
:10933000094B1B68002B02D10620FFF777FF0023A3
:10934000064A99008858002801D00133F9E78C506B
:1093500010BDC046482500204C25002020250020B7
:10936000002310B5044A99008C58844201D001337F
:10937000F9E70020885010BD2025002010B504001A
:10938000002902D00B78002B03D1034B236020006F
:1093900010BD09F063FFFAE7F8650200F8B50400B4
:1093A0000E00150000290AD00B78002B07D0002AE8
:1093B00005D0080097B20DF06AF8874203D90B4B2D
:1093C00023602000F8BD681DFFF7B2FE20600AF0A0
:1093D000E9F823682A005F8023683100181D0CF02B
:1093E000FAFF23685D1900232B71EAE7F865020094
:1093F000014B03607047C046F865020010B5054890
:10940000054C20600AF0D1F8044A054920000CF010
:10941000A8FF10BDF86502005025002000200020A4
:109420004F320200084B73B51C680500002C0AD0AF
:10943000010026680831082268460CF0CCFF0CCDEC
:1094400031682000884773BD54250020014B03601C
:109450007047C0460066020010B50400002903D121
:10946000044B0360200010BD016008000AF09DF865
:10947000F8E7C0460066020030B500684488A142A3
:109480000CDA8588AA4209DA002907DB002A05DB05
:109490005443401800198371002030BD0048FCE798
:1094A00017FCFFFFF0B5070085B00E001D00002976
:1094B00021DD002A1FDD002B1DD004686388039383
:1094C0008B4200DD0391A3880293934200DD029258
:1094D000002306340193019B029A93420EDA29007D
:1094E0002000039A0CF077FF3B68AD195B88E41805
:1094F000019B0133EEE7024805B0F0BD0020FBE719
:1095000017FCFFFFF8B504000D0016001F0000292E
:1095100001DB002A02DA0E4B2360F8BD100048433D
:109520000630FFF705FE20600AF03CF823685D80F6
:1095300023689E80002F06D03B00320029002000C7
:10954000FFF7B0FFE9E7200009F063FFE5E7C04659
:1095500000660200F7B506000D1E03D1244B036020
:109560003000FEBD00200F000400010001903B7898
:10957000002B1AD03022524294469C446246092A5B
:1095800011D90A2B0AD1019B241801330193A1425E
:1095900000DA2100002004000137E8E70028FBD0B2
:1095A00001340020F8E70120F6E70127019A09B20B
:1095B00012B230007F42FFF7A5FF39000A2033685E
:1095C0009A1D2C78002CCBD02300303B092B08D8D7
:1095D000FB43DB173B4043431B19303B1F00013566
:1095E000EFE7002FFBDB177001320F00F7E7C046F3
:1095F00000660200F0B5040089B006A80E000292D1
:109600001D00FFF755FD236802995A88914235DA0B
:109610009B889D4232DA1F2E30D9079B01939E42D0
:109620002CDC0523002273430393069B0493039BC6
:1096300004999B18A03BCB5C00210593AE18029BBC
:10964000CF1823685888019087420EDA9888B04274
:109650000BDDDB1910270F41019870431B1805988B
:109660000740781E87417F429F7101310529E6D16D
:109670000132052ADBD1002009B0F0BD0048FBE72C
:1096800017FCFFFFF7B50468070063880E1E0193FF
:109690001EDD994218DA0023063400933B68009AD5
:1096A0009B889A4212DA019BA1199D1B2A00200077
:1096B0000CF091FE6019310009F08EFE3B685B886A
:1096C000E418009B0133E8E709F0A3FE002000E066
:1096D0000048FEBD17FCFFFF10B50548054C206093
:1096E00009F063FF044A054920000CF03AFE10BD62
:1096F000006602005825002000200020CB33020025
:1097000010B5054C0121200009F043FF034A04492C
:1097100020000CF026FE10BD5C250020002000205B
:109720004F3502000388074A10B50120934208D044
:10973000834202D00020DB0703D41E20FFF73EF94E
:10974000002010BDFFFF00000048704716FCFFFF1F
:1097500010B53220FFF732F9004810BD16FCFFFFAC
:1097600010B5124C00230834828004604162022448
:10977000142201008371847203638386028136316F
:109780000A78C360A243F1342240036143618361DC
:10979000C36103620A70020040321370021DD38756
:1097A000013343878387C38710BDC046206602000C
:1097B000F0B5544F97B03B6806000593002B00D0DE
:1097C0008BE006AC0B331C222121200001F0E6F9CE
:1097D0000EAD0B231D2222210AA801F0DFF90B2375
:1097E0001B222321280001F0D9F908200CF0C0FD2C
:1097F0000122059B110004900BF06BFA3A21300016
:109800000AF0C1FF00281DD0A38812ADAB80A37958
:109810005C20AB713C4B1293A3681493237B2B7396
:10982000637B6B73A37BAB730CF0A2FD04230193EA
:10983000363300932A00049B3100040001F096FFA8
:109840003C604AE0322130000AF0CBFF00281CD0F7
:10985000A38812ADAB80A3795C20AB712A4B129325
:10986000A3681493237B2B73637B6B73A37BAB7312
:109870000CF07EFD042301932E3300932A00049BF9
:109880003100040002F010F9DAE73C2130000AF060
:1098900063FF00282CD0AB8812ACA380AB79A42046
:1098A000A371194B1293AB6814932B7B23736B7BBF
:1098B0006373AB7BA3730CF05BFD05230500029380
:1098C000013B0193383300932200049B310001F0E7
:1098D0006BFE0E4B3D6044351D600C4B094C186807
:1098E000002802D0216809F0CAFF206817B0F0BD37
:1098F00044200CF03DFD042204990400FFF730FFE2
:109900009EE7C04660250020106602006425002006
:10991000F0B56149C56885B08D4254DA0300022272
:1099200036331B78134059D104698C4264DA020043
:1099300036321278520768D4426901920200019EC1
:1099400040328E426FDA010036310978090774D44B
:10995000002B7DD113780293002B16D0060001272F
:10996000011DCB8F363601339BB2CB8703963678F9
:10997000BC46374000D188E01D2B06D963469E4384
:10998000039B1E700023CB87137009F058FE434AD7
:109990000723904276D94249043B8D4272DBC822AC
:1099A0000133920095426DDC023B8C426ADB013B45
:1099B000944267DC01980433884263DB01339042B0
:1099C00060DC00235EE0C822002352009542ABDD3C
:1099D000030036331A7800239207A5D4012306002A
:1099E0001F00363632785408A7433C0002279C40BB
:1099F000BA432243327097E7C822520094429BDD5B
:109A0000020036321278520796D40600012236360A
:109A100033789F08BA439700042293431A003A43CD
:109A20003270012388E7C821019E49008E428FDDF4
:109A300001003631097809078AD401000126363140
:109A40000B78DF08BE430827F600BB4333430B7097
:109A50001378032B00D97DE70133DBB21370012BA0
:109A600003D10021031DD98774E7042B00D071E7CF
:109A7000020036321178033B0B431370002304308D
:109A8000C3870B33180005B0F0BD092B00D87CE765
:109A9000029BCF87013B77E770FEFFFFFF7002005C
:109AA000E0FCFFFF70B5C369C1681A68451D8AB044
:109AB0000400EB7F114255D0002B58D1EB7F082BCF
:109AC0000DD90122A379134209D11343A371A188AF
:109AD000130006A809F056FCFFF70CFC2062EB7F90
:109AE000012B23D80123A2791A421FD00025A18877
:109AF000A571022202A809F045FCA31DDE7F012EFC
:109B000014D1FFF7F7FB2B00226A801A99410090CD
:109B10000191019BA188AB4203D1174B009A9A4255
:109B200027D90123042206A809F02CFC0322A379DB
:109B30001340012B14D1FFF7DDFB0023226A801AAA
:109B40009941994202D10D4B984209D90223A27939
:109B5000A1881343A3710522012306A809F012FC72
:109B60000AB070BD0B2BA9D80133EB77A6E7013BF8
:109B7000FBE733000322D6E7E7030000DB05000024
:109B800010B50400034B08330360FFF7E9FB200026
:109B900010BDC04654660200F0B5070000250E0057
:109BA000040085B002930AAB1B78083703930F4B70
:109BB00001920833036085808571290018223800DE
:109BC0000CF025FC039A310038000CF053FA019B8D
:109BD000029AA380A31DE671DA77631D2562200037
:109BE000DD77FFF79FFB200005B0F0BD5466020053
:109BF0000048704716FCFFFF10B53320FEF7DEFE6D
:109C0000004810BD16FCFFFF002310B50400838040
:109C100083710D482164083020608020C000A0615D
:109C2000E0612062E3602000236163616362A362FC
:109C3000E36223636363A363E3636364110009F076
:109C4000F6FD200010BDC0466C660200F0B5534F13
:109C500097B03B6806000593002B00D08BE00B33D8
:109C60001C22212106A80AAC00F098FF0EAD0B23A0
:109C70001D222221200000F091FF0B231B22232113
:109C8000280000F08BFF08200CF072FB0122059BDE
:109C9000110004900BF01DF81D2130000AF08AFD20
:109CA00000281DD0A38812ADAB80A3796020AB71D2
:109CB0003B4B1293A3681493237B2B73637B6B73CF
:109CC000A37BAB730CF054FB052301931833009373
:109CD0002A00049B3100040001F01CFE3C604AE0B5
:109CE0003C2130000AF094FD00281CD0A38812AD5E
:109CF000AB80A3796020AB71294B1293A3681493B6
:109D0000237B2B73637B6B73A37BAB730CF030FBF8
:109D100005230193373300932A00049B310004008C
:109D200001F064FFDAE73C2130000AF015FD00285D
:109D30002AD0AB8812ACA380AB79A420A371184BB6
:109D40001293AB6814932B7B23736B7B6373AB7B96
:109D5000A3730CF00DFB052305000293013B019357
:109D6000383300932200049B310001F01DFC0D4BA1
:109D70001D6044353D600B4B084A1B681068002B82
:109D800000D0436417B0F0BD48200CF0F1FA052272
:109D900004990400FFF738FFA0E7C04664250020BF
:109DA000106602006025002082B0F0B50400EDB01E
:109DB0006420739372920CF0E7F9052210A8110049
:109DC00009F030FB974911A8FFF7C4FB002221AB33
:109DD0006CA91A605A609A600C339942F9D1192221
:109DE000002113A80CF013FBA0680AF0DFF800268E
:109DF0000B90FF21A06800F0B7FC8B4FA06800F02B
:109E00005DFB07960996884B9F4203D0874B9F4284
:109E100000DBFDE0A0680AF0CBF8A56884491AA829
:109E2000FFF7ACFA78221AA9280000F0E5FB1AA87F
:109E300009F00DFA00267C4F0322099B606801336C
:109E40001A40099209F093FC0500606809F096FC3D
:109E50000022784B05929D4210DB013205922A00C8
:109E6000C8320BDBAA22042192000591954205DC41
:109E700002220592C82D01DD0132059200220692D0
:109E8000984210DB012306930300C8330BDBAA239F
:109E900004329B000692984205DC02230693C828F0
:109EA00001DD0133069310A809F0B3FA002513ABC6
:109EB000EB5C012B08D160496B00CA185278C95C71
:109EC00010A8FF23FFF7D8FA0135192DEFD16B4603
:109ED00018229A5E6B4610A81421595E099BFFF761
:109EE000CBFA002F01DB0F2E07D90023A0680093C7
:109EF00074301A0010A909F0A2FA01230893089BF4
:109F000005995A004C4B9B189A1E12788A4226D10A
:109F1000013B1B78069A934221D1089A6CAB9B189F
:109F2000663BFF3B0A931B78012B18D00C23079A42
:109F3000216853431D0000220CA809F0A2FC21AAAD
:109F40002B0094460CAA634423CA23C301220A9B14
:109F500001361A70079BF6B20133DBB20793089BF8
:109F6000013308931A2BCAD164200CF00DF9079B1A
:109F7000643F3FB2182B00D845E71A0021A91AA860
:109F800009F08DFE6A461DAB23CB23C21B6813600C
:109F90001A991B9A1C9B206809F05BFCE568002D50
:109FA0000CD0264912A8FFF7E9F91C231AAA12A916
:109FB00028000AF09CFB12A809F049F9A06809F0F2
:109FC000F7FF11A912A8A56809F00CFA00221C4B92
:109FD000009212A901932800130000F0B1FA12A810
:109FE00009F0F3F9FA2080000CF0CEF8A06809F02F
:109FF000DFFF0B99A06800F0B7FB11A809F0E5F9A5
:10A0000010A809F0E2F96DB0F0BC08BC02B0184726
:10A01000002F02D00F2E00D00EE7A06800F04EFAFD
:10A020000AE7C046DE7202008C3C0000D18AFFFFC6
:10A030002373020058FDFFFF4373020038730200D0
:10A04000DC050000F0B587B001930EAB1B8806005D
:10A0500003930D9B0D000093019B02920C9F002B1C
:10A060003CD0002F02D1009BDB0737D528200CF015
:10A070007FF90400103009F07BF9029B182025803D
:10A0800063800CF075F90500009B08220593019B85
:10A09000002103600C3004970CF0B9F9082204A9E0
:10A0A000281D0CF098F90E4B02226B6100230399D6
:10A0B000E3602362636233680A43A560A2805B6841
:10A0C000210030009847002806D0200009F075F8DC
:10A0D00020000CF042F9034807B0F0BD0248FBE74E
:10A0E000C338020016FCFFFF17FCFFFF70B58CB0F1
:10A0F0008360109B01604260C3600400184918002F
:10A100000AF0BCFA051E14D001001C22103105A86B
:10A110000CF061F96A4608AB43CB43C21B6813607D
:10A1200020680599069A079B09F093FB28000CF01C
:10A1300014F90C4B186800280ED00B4A05AB059299
:10A1400000220692C03202926A4622CB22C223002B
:10A1500003220521FFF776FF20000CB070BDC0463A
:10A160003873020054250020A99D0100F0B50400B9
:10A1700085B0637A9C46002B04D1200009F0ADFD28
:10A1800005B0F0BDA37A266F01931023019AF35610
:10A1900000259B1801229A402900F368039202933C
:10A1A000029BAB4231DDB368019A6B439B18726925
:10A1B0005B00E77AD3181A785878E379012F14D125
:10A1C0005F1E3F1A10003A005B004343606F821825
:10A1D000D3189B79634500DD6346627B1A4202D047
:10A1E0000123AB4019430135DAE7022F05D15F1E89
:10A1F000BA1A277A013F381AE6E7032FE4D1277A03
:10A20000013FBF1A02003800DEE71123C943F356AD
:10A21000606C994023691940039B19430CF074F852
:10A22000A27B072AACD8637B0C495B006373531C89
:10A23000DBB290004158A373022A03D808000BF048
:10A2400098FF96E7064B2000236300236363054BCA
:10A25000E462236414300BF02AFE91E79866020052
:10A260006DA10100C53C020010B50400044B036061
:10A270000BF015FE200005F0D5FE200010BDC046F5
:10A28000F46D020010B504000E4B08330360FFF7B5
:10A2900067F82000743009F098F82000603009F069
:10A2A00094F82000583008F0D2FF2000503008F019
:10A2B000CEFF2000044B14306361FFF7D5FF200070
:10A2C00010BDC046B8660200086E0200F8B5002551
:10A2D0000400324B8580083303608571143016000A
:10A2E0000F0005F089FE20002D4BE56263612564B7
:10A2F0005030FFF77DF820005830FFF779F8200044
:10A300006030FFF7A3F820000423F25E336826676D
:10A31000590009B2743009F085F83368226FE3718F
:10A3200073680126237210236581A7802561D356A7
:10A3300091685918994204DD300098400133054373
:10A34000F8E711230120D356D1685918994206DD48
:10A3500002009A402669013332432261F6E7142055
:10A360000CF006F8226900212A430123060006F0BA
:10A37000CDF8FF23220063720133A381002348320A
:10A380006664A37320001370A366FEF7CBFF01235E
:10A39000A27920001343A371F8BDC046B86602003D
:10A3A000086E0200F0B5437A85B00400002B04D19A
:10A3B000200009F092FC05B0F0BD0122837A110063
:10A3C0009C461023066F0025F35603926344994080
:10A3D00002912900F3680193019BAB422CDDB36825
:10A3E00072696B4363445B00E77AD3181A78587834
:10A3F000E379012F10D15F1E3F1A10003A005B0075
:10A400004343606F8218D3189B79002B02D0039BC3
:10A41000AB4019430135DFE7022F05D15F1EBA1AA1
:10A42000277A013F381AEAE7032FE8D1277A013F5C
:10A43000BF1A02003800E2E71123C943F356606CEB
:10A44000994023691940029B19430BF05DFF667A1E
:10A45000B31EDBB2FC2B14D8FEF712FF0B4B05002A
:10A46000236300230A4863630A4BFF21E4622364E9
:10A47000704306F0CDFB29004143200014300BF05F
:10A4800016FD637A012B00D995E791E7DB3C0200CA
:10A49000B6030000C53C02001FB5012381881A00E5
:10A4A000684608F06FFF012303491A00684608F068
:10A4B00069FF05B000BDC046FE0300001FB50300E4
:10A4C00048331A780400002A0DD000221A700123A4
:10A4D00081881A00684608F055FF012304491A00D4
:10A4E000684608F04FFF2000743008F092FF1FBD4F
:10A4F000FF03000010B548300378002B06D0037826
:10A50000012B03D00121024808F0ACFD10BDC0466C
:10A51000FF03000010B501210400062008F0A2FD91
:10A52000064B984208D148342378002B04D0237876
:10A53000012B01D020BFF7E710BDC04616FCFFFF7E
:10A5400073B5079C0500002C1CDB060048363078EC
:10A55000002802D03078012816D106981BB2C0B26C
:10A560000090280012B2743008F069FF002C07D068
:10A570002B004A331C80002407234C352C80337079
:10A58000200076BD014CFBE7014CF9E717FCFFFF0B
:10A5900012FCFFFFF0B587B00D9C06000F00029281
:10A5A0000393002C20DBFFF7A5FF330048331D7811
:10A5B000EDB2002D1AD1390005A808F013FF0C9B4D
:10A5C00001940093029A039B05A93000FFF7B8FF9E
:10A5D00005A808F0FAFE002C03D03000FFF79AFF20
:10A5E0002C00200007B0F0BD014CFAE7014CF8E761
:10A5F00017FCFFFF11FCFFFFF8B50400171E1DDD5F
:10A60000060048363378002B02D03378012B17D15F
:10A610002200E3795632013B13702300002520000D
:10A6200054331D80503008F071FE23004A331F80E0
:10A63000022328004C3425803370F8BD0148FCE724
:10A640000148FAE717FCFFFF12FCFFFFF7B5050012
:10A650000F00161E18DDFFF74DFF2B0048331C7846
:10A66000E4B2002C12D1390001A808F047FE3200F4
:10A6700001A92800FFF7C0FF01A808F0E8FD2800A5
:10A68000FFF748FF2000FEBD0148FCE70148FAE75C
:10A6900017FCFFFF11FCFFFFF8B50400171E2DDDAE
:10A6A000060048363278002A02D03278012A27D1B3
:10A6B0005D42069BFF331FD16B1D22001BB264322B
:10A6C00013802300200066331D70603008F092FE76
:10A6D000230000226C331A70954200D03D00230005
:10A6E0004A331D80079B00205A1E9341013F4C3482
:10A6F000053327803370F8BD069BDEE70148FAE793
:10A700000148F8E717FCFFFF12FCFFFFF0B587B028
:10A7100005000F00161E03931EDDFFF7EBFE2B0056
:10A7200048331C78E4B2002C18D1390005A808F091
:10A7300059FE0D9B320001930C9B05A90093280044
:10A74000039BFFF7A9FF05A808F03FFE2800FFF7CD
:10A75000E1FE200007B0F0BD0148FBE70148F9E742
:10A7600017FCFFFF11FCFFFFFF2902D841720020F8
:10A7700070470148FCE7C04617FCFFFF13B5040013
:10A7800004A80078009020000BF0FFFA002801D107
:10A79000207516BD0048FCE70EFCFFFF13B5040052
:10A7A00004A80078009020000BF0D7FA002801D10F
:10A7B000207516BD0048FCE70EFCFFFF7FB50D00BD
:10A7C00011000F226A4404001E1E117016D0089B4F
:10A7D000002B13DD012329000093FFF7DFFF002882
:10A7E00002D0074804B070BD0090089B32002900D9
:10A7F0002000FFF7C3FF0028F4D0F2E70148F1E79B
:10A800000EFCFFFF17FCFFFFF7B507000D1E3FD042
:10A810000023022604690193002C35D0AA88A3885E
:10A820005340334204D1324204D1AB88334226D064
:10A83000646AF1E7A968A0680AF030FA0028F4D049
:10A840002B88002B02D022889A42F1D16B88002BF2
:10A8500002D062889A42EBD1EB68E268934201D061
:10A86000002BE5D17B68002B01D020009847A288FF
:10A87000084B1343A380019B01330193D8E7A368DE
:10A88000AA689342D4D1DBE7019B2000002B00DCB7
:10A890000148FEBD0080FFFF17FCFFFFF0B506007A
:10A8A00085B00D1E5DD001270469002C26D0022141
:10A8B000AA8800230A4202D0A3885B083B40226892
:10A8C00029688A4214D1A068A968002B0ED00AF02A
:10A8D000E5F900280CD0EB68E268934208D1A38820
:10A8E0001AB2002A06DB204805B0F0BD8842F2D03B
:10A8F000646ADAE75B045B0CA380F4E730692A88BA
:10A90000002807D1356101231849684608F03AFD4F
:10A910000020E9E7010003001C88944206D25C6A2B
:10A920001900002C0DD02300F6E723001C88944268
:10A9300007D15F886C88A74203D85C6A1900002C95
:10A94000F3D1884209D10B889A4204D305D14888B3
:10A950006B88984201D96962D4E74B6A6B624D6299
:10A96000D1E70348C0E7C04616FCFFFFFD03000027
:10A9700017FCFFFF064B10B51A00040008322C33F9
:10A98000026083600830FEF73BFA200010BDC0462D
:10A99000D066020008B4024B9C46083808BC6047E9
:10A9A00075A9010008B4024B9C46083808BC6047F2
:10A9B000234102000C4A002311002C32083110B54B
:10A9C0004360838183738260036143618361C383D6
:10A9D000016004000830FEF705FA044B1A68002AEB
:10A9E00000D11C60200010BDD0660200542500205C
:10A9F000F7B50E00012504690192002C36D023889A
:10AA000032889A4201D0002B23D1638872889A42FF
:10AA100001D0002B1DD1FEF759F90123002806D0E3
:10AA2000C022A3881340C03B5A425341DBB2019A73
:10AA3000934219D1A7883BB2002B15DB10223100BD
:10AA4000A0180BF0C8FC40231F4204D0200009F0DE
:10AA500071FB646AD1E7FEF739F90028F6D02100CE
:10AA60000348FEF7E5FAF4E70025F2E72800FEBD0B
:10AA70003541020008B4024B9C46083808BC6047C8
:10AA8000BD420200F0B587B001930EAB1B880600F3
:10AA900003930D9B0D000093019B02920C9F002BD2
:10AAA0003CD0002F02D1009BDB0737D528200BF0CC
:10AAB0005FFC0400103008F05BFC029B182025802E
:10AAC00063800BF055FC0500009B08220593019B59
:10AAD000002103600C3004970BF099FC082204A9B4
:10AAE000281D0BF078FC0E4B02226B6100230399AA
:10AAF000E3602362636233680A43A560A2805B68F7
:10AB0000210030009847002806D0200008F055FBAF
:10AB100020000BF022FC034807B0F0BD0248FBE721
:10AB2000F742020016FCFFFF17FCFFFFF0B5040020
:10AB3000160000258380164A164B8571026021811C
:10AB400046810573186889B08C46A8421DD0124A08
:10AB500005950492C02202926A4604AB82CB82C25F
:10AB600023002A006146FFF78DFFC022094B0A49E6
:10AB7000186802926A46069106AB079582CB82C29C
:10AB800023002A003100FFF77DFF200009B0F0BD4F
:10AB900014670200542500202144020030B500242F
:10ABA00003730123034D84710560818082734373B5
:10ABB000846030BD1066020070B583790400DB0745
:10ABC00002D580680BF0C9FBA3799B0702D5A0686A
:10ABD0000BF0C3FBA3795B0707D5A0230021144A20
:10ABE000DB00D150A0680BF0B8FBA3791B0708D598
:10ABF000A568002D05D028000AF0C1F828000BF048
:10AC0000ACFBA379DB0605D5A068002802D0036859
:10AC1000DB6898476023A2791A4205D0A068002813
:10AC200002D003685B6898470023A360A37170BDDE
:10AC300000700040F7B50126037B040033422AD0A0
:10AC4000612385791D4017D1FFF7B6FF18200BF05F
:10AC50008FFB0E230700E35618220093637B290025
:10AC600001930BF0D4FB019A009938000BF002FA23
:10AC7000A379A7603343A3716023A279A0681A4225
:10AC800002D00BF0A3F8FEBD436940681B68184072
:10AC9000431E9841F7E70148F5E7C04616FCFFFF61
:10ACA00010B50124837941731C4004D080680BF0F7
:10ACB00072FA002010BD6022134203D080680BF0AE
:10ACC0008CF8F6E70048F5E716FCFFFF70B50400C6
:10ACD00000250C4B0E000833858085710360210030
:10ACE000183009F04EFC20002100203009F06CFCE7
:10ACF000054BA680E5802572E56025616561200031
:10AD00001C6070BD24670200682500208379DB0782
:10AD100002D5C160002070470048FCE716FCFFFF29
:10AD20008379DB0701D5C06870470148FCE7C0465E
:10AD300016FCFFFF70B545690400002D22D0037A90
:10AD4000032B21D8FFF7ECFFA8622C200BF010FB9F
:10AD50002C22002105000BF05AFB002263695A6285
:10AD60002369934208D1636923610020237A6561D6
:10AD70000133237270BD13005A6A002AFBD1626945
:10AD80005A62F2E70148F5E70148F3E717FCFFFFD5
:10AD900013FCFFFF144B70B55A68144C002A03D003
:10ADA00000225A600132A2601A69002A17D00021DD
:10ADB00019618023DB000E4DE3582868012B0FD169
:10ADC000A923DB00E1584942FFF7A0FF2868FFF7FD
:10ADD000B1FF2B685A69074BE2500123A36070BD95
:10ADE000FFF794FFF9E7C046FC1000400010004058
:10ADF000682500200405000003000069002809D030
:10AE00000221054AD167426A1A611A7A013A1A7216
:10AE1000024B19607047C04604E100E000E100E029
:10AE200010B5002903DB024B19600BF01AF810BDB6
:10AE30006C25002070B504001E0004AB1D7805F0E1
:10AE4000A5F820000E4B40302360FEF7D1FA230016
:10AE500001364C33013522001E701D730023E121A1
:10AE60004E32A3646365138053809381D381013B89
:10AE7000200063644902FFF7D3FF200070BDC04685
:10AE8000C0650200F7B580277F053D697C6908220F
:10AE9000113C6C430600210068460BF09CFA104BF5
:10AEA000009A9A4219D000930023019379693000E7
:10AEB0001339694309F09DFB019A0099300009F0AC
:10AEC000B0FB2100300009F094FB7969AB0813391D
:10AED00069432200300009F096FB0198FEBDC04690
:10AEE000FECA0000F0B50D00A9B00D92002130227D
:10AEF000060010A80B930BF08AFA28000BF0C7FA93
:10AF0000431C0C93102B00D9B5E00B9B202B00D9D0
:10AF1000B1E02900300009F0B1FB071E50D1290033
:10AF20000C9A10A80BF057FA0D990B9A14A80BF075
:10AF300052FA80235B051A695F690C92113F7A43CC
:10AF400030005D690B92FFF79DFF30220021040065
:10AF50001CA80BF05CFA290000270C9B13395943FD
:10AF6000300009F046FB0D9730257D430B9B0833DD
:10AF7000ED18A74242DA290030221CA80BF02BFA68
:10AF800010A91CA80BF079FA002827D13C49300001
:10AF900022000E910F9409F044FB6A46099513AB09
:10AFA00023CB23C223CB23C223CB23C23000129B4B
:10AFB0001099119A09F043FB01230D930137D3E750
:10AFC00010300B9A0D990BF0F7F9040038000BF0D4
:10AFD000C4F9002CA3D1200029B0F0BD6A46099520
:10AFE0001FAB23CB23C223CB23C223CB23C23000EE
:10AFF0001C991D9A1E9B09F022FBDFE7E5433023D5
:10B00000ED1725405D430B9B08355D190D9B002B0B
:10B010001DD10C9B3021981E05F070FDA0422CD054
:10B0200017490134300022000E910F9409F0F9FA0B
:10B030006A46099513AB23CB23C223CB23C223CB70
:10B0400023C230001099119A129B09F0F8FA0B995B
:10B05000300009F0CEFA80235B0559690C230C9A65
:10B06000133963434A430233110030000B9A09F04D
:10B07000CAFA0024AFE7034CADE7034CABE7C04688
:10B08000FECA000017FCFFFF13FCFFFF8023F0B592
:10B090005B051A6995B003925A6905910399113AB3
:10B0A00051435D69039B133D040002915D43FFF72B
:10B0B000E9FE061E3BD0002730220021083508A8F3
:10B0C00001950BF0A4F90199200009F092FA049778
:10B0D00030237B43029D0835ED18B7421FDA290063
:10B0E000302208A80BF077F9059908A80BF0C5F9EC
:10B0F00000280AD11949721E20000691079209F012
:10B1000090FA012304930137E2E70C23019A290006
:10B11000200009F078FA019B30330193F3E7049B98
:10B12000002B06D10D493200200009F07AFA0C48B4
:10B1300012E00299200009F05CFA80235B0559694E
:10B140000C23039A13394A4373431100200002333E
:10B15000029A09F058FA002015B0F0BDFECA0000AE
:10B160000CFCFFFF70B50400A280FA220023080047
:10B170000C49920008312160A3716061E260A36014
:10B180006382094909F07AFA051E09D001002000FE
:10B190001031022212300BF01EF928000BF0DDF8FE
:10B1A000200070BD3C6702007573020030B50225B7
:10B1B000837987B004002B4204D1FDF713FEA379F5
:10B1C0001D43A571200009F0A3FA00281CD06B468E
:10B1D000DD1C280009F093FA2B78002B17D001A86A
:10B1E00009F08BFA0321019AD3170B409B189B108F
:10B1F0002382FEF77FF8E368A18818180123A06076
:10B200001A0002A808F0BEF8002007B030BD0122E5
:10B21000064B1A60064A51680029FCD00021516093
:10B22000044A1268019201225A60DBE700C0004024
:10B23000FCC0004008C50040022802D10122014B99
:10B240001A7070475128002070B5064C050023780D
:10B25000002B04D1044802F0FFFA012323702800D8
:10B2600070BDC0465228002039B2010070B50C00F4
:10B2700007F086FE002810D00023144DA40A2B707E
:10B28000200009F059FA002803D00A200AF07CFFB8
:10B29000F6E72B78002BFCD070BD02210C4B0D4A39
:10B2A00099508021C90008005D58002DFCD0A121D3
:10B2B000C9005C5019580029FCD000219950802108
:10B2C000C9005A58002AFCD0E6E7C04651280020A1
:10B2D00000E0014004050000F8B50C0015001E0058
:10B2E00007F04EFE002811D00023174F3B703200AC
:10B2F0002900200009F01EFA002803D00A200AF0D5
:10B3000043FFF4E73B78002BFCD0F8BD01210F4848
:10B310000F4B844619508021C9005A58002AFCD08E
:10B3200080270022FF00964207DD91006858605098
:10B33000D9590029FCD00132F5E7002261465A5064
:10B34000DA59002AFCD0E0E751280020040500006B
:10B3500000E0014008B4024B9C46443808BC6047FA
:10B360003D470200FA21F8B50389C900040059439A
:10B37000324809F0A9FCFA21890005F0BFFB304FE3
:10B380002081A17A380009F09FFC230026002500C7
:10B3900022894C33A072A0361A808C353178002374
:10B3A0002A22286808F011FE002801D02548F8BD9F
:10B3B00031781F235B22286808F007FE0028F5D1AA
:10B3C000317820235C22286808F0FFFD0028EDD1A9
:10B3D000317801232C22286808F0F7FD0028E5D1F8
:10B3E000317801232D22286808F0EFFD0028DDD1F7
:10B3F000317801232E22286808F0E7FD0028D5D1F6
:10B40000A17A380009F05BFC3178C3B20E222868BB
:10B4100008F0DBFD0028C9D1FA21238989005943AE
:10B42000064809F04CFC01230343DBB231782A22A1
:10B43000286808F0CAFD0028B9D0B7E75C670200A9
:10B44000546702000EFCFFFF08B4024B9C464438D0
:10B4500008BC604765B30100074B10B51A00040033
:10B4600008323C3302604364443008F0AEF92000F7
:10B4700008F0D7F8200010BDBC67020008B4024BEA
:10B480009C46443808BC604759B4010008B4024BDC
:10B490009C46443808BC604747470200F0B5042585
:10B4A00083798BB004002B4204D1FDF79BFCA37978
:10B4B0001D43A57120009030FFF7BCFB0026B04271
:10B4C0000FD12300A033197820000C2307AD00937F
:10B4D0008C302B0001220068FFF770F9061E03D0A4
:10B4E0002C4E30000BB0F0BD0A2304AA9B182A781A
:10B4F0005A706A781A700022985EAA785A70EA78B0
:10B500001A700022995E03912A795A706A791A702A
:10B5100000229F5EAA795A70EA791A7000215A5E59
:10B5200004922A7A5A706A7A1A7000215A5E059239
:10B53000AA7A5A70EA7A1F251A7000229B5EA27AB4
:10B5400003999C46514349425043CB172B407A43C1
:10B550005B185B11A361C3172B401818D3171D404C
:10B560006423AD18059A5B425343A3676423614685
:10B57000049A40115A434B43E2676D11221DE0616A
:10B5800025622000D36708F0C5F82000443008F099
:10B5900023F9A6E70EFCFFFF08B4024B9C46443893
:10B5A00008BC60479DB40100F7B51E00040008AB5D
:10B5B0001B881500019309AB00911A8831000AAB72
:10B5C0001F88FEF7CDF820003A0031004430FEF726
:10B5D0001BFB134B20001A003C336364230008322A
:10B5E0002260009A8C331A60AB8890308380AB79EC
:10B5F000019A83710B4B03210360AB6883602B7B43
:10B6000003736B7B4373AB7B83732300A0331A807C
:10B61000FFF746FB2000FFF7A5FE2000FEBDC04659
:10B62000BC67020010660200F8B5FA260189B60070
:10B6300004007143264809F047FB310005F05EFA2B
:10B64000244F2081A17A380009F03EFB2500A0722A
:10B650005835297800232A22606C08F0B6FC0028AF
:10B6600001D01D48F8BD297810232B22606C08F00A
:10B67000ACFC0028F5D1297801232D22606C08F05C
:10B68000A4FC0028EDD1297801232E22606C08F05B
:10B690009CFC0028E5D1A17A380009F010FB29783C
:10B6A000C3B20E22606C08F090FC0028D9D1218929
:10B6B0000748714309F003FB01230343DBB22978F8
:10B6C0002A22606C08F081FC0028CBD0C9E7C04674
:10B6D000246802001C6802000EFCFFFF10B5040085
:10B6E000034B0833036007F09CFF200010BDC046E9
:10B6F000846802007FB50425837904002B4204D1BD
:10B70000FDF770FBA3791D43A57120004830FFF7BA
:10B7100091FA0025A8420DD1230058331978062349
:10B7200002AE009301223300606CFFF747F8051E5C
:10B7300003D00D4D280004B070BD02230021042069
:10B74000F356A27ADB00715630565343C000C9004D
:10B75000514342435B42A3612368E16122629B6AD9
:10B7600020009847E6E7C0460EFCFFFFF8B504004E
:10B77000150006AA168807AA0F0012881900FDF7FF
:10B78000EFFF0F4B6764083323602300AA88483318
:10B790009A80AA7920009A710A4AA264AA6822654E
:10B7A0002A7B1A736A7B5A73AA7B9A730023A3714C
:10B7B000230058331E80FFF737FF2000F8BDC04636
:10B7C000846802001066020010B50400034B0833C1
:10B7D000036007F0FAFF200010BDC04618690200A0
:10B7E000F0B507005C3787B00400397800231022D9
:10B7F000806C08F0EAFB0326002802D01F4807B03F
:10B80000F0BD0F2502ABED18012339780822009313
:10B81000A06C2B00FEF7D2FF184B9842EED02B788D
:10B82000334203D06420FDF777FBEAE7FA2621894B
:10B83000134DB6007143280009F046FA310005F0B7
:10B840005DF920813978A0231122A06C08F0BDFB9E
:10B850000028D3D1A36C21890393714328003F783A
:10B8600009F02DFA01231843C3B2102239000398BE
:10B8700008F0ABFB0028C2D0C0E7C0460EFCFFFFBB
:10B88000B868020070B50825837986B004002B42A1
:10B8900004D1FDF7A7FAA3791D43A57120004C3010
:10B8A000FFF7C8F9061E0DD023005C331978062374
:10B8B00004AD009301222B00A06CFEF77FFF061E53
:10B8C00003D0134E300006B070BD0E232A786B44AF
:10B8D0005A706A7820001A700022995E64224A43E6
:10B8E000A263AA785A70EA781A700022995E6422DC
:10B8F0005242514361632979597069791970002165
:10B900005B5E5A432368E2631B6A9847DAE7C046E6
:10B910000EFCFFFFF8B50400150006AA168807AA5A
:10B920000F0012881900FEF76FF90D4BA76408335A
:10B9300023602300AA884C339A80AA7920009A7148
:10B94000084AE264AA6862652A7B1A736A7B5A73A2
:10B95000AA7B1E829A73FFF743FF2000F8BDC04602
:10B960001869020010660200F7B5FA250189204F18
:10B97000AD0004006943380009F0A6F9290005F07C
:10B98000BDF8A17A20811B4809F09EF92600636C5E
:10B99000A0720093218958363378694338000193A7
:10B9A00009F08DF907230343DBB2202201990098A7
:10B9B00008F00BFB002801D00F48FEBD31781023A2
:10B9C0002222606C08F001FB0028F5D1A17A094819
:10B9D000656C377809F073F980235B420343DBB26F
:10B9E00023223900280008F0F0FA0028E5D0E3E728
:10B9F0004C690200446902000EFCFFFF10B5040010
:10BA0000034B0833036007F00CFE200010BDC04656
:10BA1000BC690200F0B50425837985B004002B428F
:10BA200004D1FDF7DFF9A3791D43A571200048304B
:10BA3000FFF700F9061E0DD02300583319780623AE
:10BA400002AD0093A8222B00606CFEF7B7FE061E25
:10BA500003D0144E300005B0F0BD1F200023EA5E75
:10BA6000D31703409B180222A95E5B11CA1702403C
:10BA7000521804216F5E5211F9170140C91949117A
:10BA80002B806A80A980A07A4343424341435B42B2
:10BA9000E36123685242A26121629B6A20009847B9
:10BAA000D8E7C0460EFCFFFFF8B50400150006AA53
:10BAB000168807AA0F0012881900FDF751FE0F4BD8
:10BAC0006764083323602300AA8848339A80AA79E0
:10BAD00020009A710A4AA264AA6822652A7B1A7316
:10BAE0006A7B5A73AA7B9A730023A371230058338D
:10BAF0001E80FFF739FF2000F8BDC046BC69020078
:10BB000010660200F7B5FA2504000189134EAD0056
:10BB10006943300009F0D8F8290004F0EFFF27004E
:10BB2000A36C208100935C373B7881B2694330007D
:10BB3000019309F0C4F86022C3B20199009808F09B
:10BB400044FA002801D00648FEBD3978012362225C
:10BB5000A06C08F03AFA0028F6D0F4E7F069020089
:10BB60000EFCFFFF10B50400034B0833036007F021
:10BB70002CFE200010BDC046186A02007FB50825C3
:10BB8000837904002B4204D1FDF72CF9A3791D43DE
:10BB9000A57120004C30FFF74DF8051E0DD0230095
:10BBA0005C331978062302AE0093E8223300A06CC0
:10BBB000FEF704FE051E03D00B4D280004B070BD37
:10BBC0000223F25E96235B425A4362630021725E57
:10BBD00020005343A3630423F25E96235343E3639D
:10BBE00023681B6A9847E8E70EFCFFFFF8B50400DE
:10BBF000150006AA168807AA0F0012881900FEF77A
:10BC000003F80D4BA764083323602300AA884C3344
:10BC10009A80AA7920009A71084AE264AA6862654B
:10BC20002A7B1A736A7B5A73AA7B1E829A73FFF768
:10BC300069FF2000F8BDC046186A020010660200C5
:10BC400010B50400054B083303601C3007F0FFFA01
:10BC50002000183007F0FBFA200010BD446A0200F3
:10BC6000FF23F0B52C4D8DB02B70002304006946E6
:10BC70000088009303F086F9002802D16B469B7878
:10BC80002B70264E3368DB68002B07D100232088F9
:10BC90001A00190008F0C7FD0DB0F0BD2B78032B7A
:10BCA000F4D81F4901A8FDF769FB336801A9DE68D4
:10BCB00004A807F023FB04A9300008F012FD0027B8
:10BCC000060004A807F0C3FABE421ED031002022AD
:10BCD000103104A80AF07FFB30000AF03EFB2978FF
:10BCE00004ABC9005918082202A80AF074FB208886
:10BCF0000123082202A908F096FD0137002804D18B
:10BD00002088084A0C2108F08CFD01A807F09FFA52
:10BD1000002FBBD0C0E7C046802000207C2500203B
:10BD200008740200FFFF0000F0B5837991B00400B1
:10BD30005B071BD5FDF7DEFA00232269801A9941C3
:10BD4000994203D1F423FF3398420FD9A068002809
:10BD500008D0364B1D8809F02FF8036815221B6A9E
:10BD6000290098470422A3799343A371A3799B07E1
:10BD700059D52F4D2B68DB68002B50D02D4B1B78ED
:10BD8000032B4CD8294B2C491B8804A80193FDF7A1
:10BD9000F5FA2B6804A9DE6808A807F0AFFA08A92D
:10BDA000300008F09EFC070008A807F050FA02AB2C
:10BDB0009E1D08233200338006A9073B019808F036
:10BDC00034FD002F08D039002022103108A80AF0D5
:10BDD00002FB38000AF0C1FA164B32881B7806A91C
:10BDE000DE0008AB9E1930000AF0E6FA002813D0F6
:10BDF000082206A930000AF0EEFA2B6804A9DD68D3
:10BE000005A807F07BFA202308AA05A9280008F056
:10BE10006EFC05A807F01BFA04A807F018FA022226
:10BE2000A3799343A37111B0F0BDC046F827002059
:10BE30007C2500208020002008740200F7B5089EB1
:10BE40000500152922D8012007008F40244C2742E5
:10BE50001CD0E97FCC181F2C41DC69183418A14292
:10BE600010D80021C8B2834204D9545C7018847081
:10BE70000131F7E732789A183270EA7F9B18EB7736
:10BE800000202CE00878C8540139E8E73478013CF8
:10BE9000E4B2A34208D10023D9B28C42F0D9D05CDD
:10BEA000F11888700133F7E7EF7F0120FF183F1B7F
:10BEB0001F2F14DC0227A01C7F423618381B01906C
:10BEC000E87F2F18BE4204D23078019FF05501362A
:10BED000F6E7041B023CEC77280008F0F0FCFEBDFE
:10BEE000FC002000F0B5040085B001930AAB1E8869
:10BEF0000BAB1B78451C02930EAB1B78170003930A
:10BF00000B78102203704B8A0131438228000AF01B
:10BF100062FA268300260122019B67616383039BEB
:10BF2000E6832377029B2000EB77A31CDA770C9B38
:10BF30000C25636223000D9A28331A705E709E7080
:10BF40002A0031002C300AF062FA2000064BE6632A
:10BF5000A3632A00310040300AF059FA2000034B55
:10BF60002665E36405B0F0BD414802003348020095
:10BF700070B50D0008F020FF04000368002D09D102
:10BF80005B699847FA2080006843074904F0B6FDD2
:10BF9000E08070BD9B6898478542F3D223682000FB
:10BFA0009B6898470500EDE771020000F0B50700B7
:10BFB0001600A1B002C704006B4918A81D0008F0C4
:10BFC000C5FC331E03D030000AF061FA83B20122AF
:10BFD00004920022039202920232019200933200F4
:10BFE00018A93800FFF77EFF23006049583318A8CE
:10BFF000079308F0ABFC2B1E03D028000AF047FA89
:10C0000083B2012204920022039202920232019230
:10C0100000932A0018A90798FFF764FF23005449EA
:10C02000AC3318A8089308F091FC269B002B03D092
:10C0300018000AF02CFA83B2012204920022039223
:10C040000292023201920093269A18A90898FFF7EB
:10C0500049FF631CFF33474918A8099308F076FC91
:10C06000279B002B03D018000AF011FA83B201229B
:10C0700004920022601C0392029202320192009309
:10C08000279A18A9FF30FFF72DFF23005533FF3300
:10C09000394918A8099308F059FC289B002B03D0B4
:10C0A00018000AF0F4F983B20122049200220392EC
:10C0B0000292023201920093289A18A90998FFF778
:10C0C00011FF2300A933FF332C4918A80A9308F065
:10C0D0003DFC299B002B03D018000AF0D8F983B24D
:10C0E00001220492002218AD0392029202320192C0
:10C0F0000093299A29000A98FFF7F4FE204B1B7839
:10C100000B93002B2CD1079B12971393089B0DAF19
:10C110001493631CFF331593099B1A4916930A9BCA
:10C120003800179308F012FC1D2149203B7810229B
:10C130002B707B8A12AE6B8206ABC918C0180AF04E
:10C140004AF906232B750B9B2068AB83AE6108F080
:10C1500037FE036829001B6898470122084B1A70B4
:10C16000200021B0F0BDC046292A0000242A00008A
:10C17000252A0000272A0000262A0000282A00007D
:10C18000532800200A18000070B5002504000B4B4E
:10C190008580083385710360C1601830FDF728F988
:10C1A00020001C30FDF724F90123621CD377044AD8
:10C1B000A560656120001460A37170BD446A02002F
:10C1C0007C250020FA2130B585B00500012302222C
:10C1D0008900684607F0D6F8074C2068002809D087
:10C1E00008F0EDFB2988054B22681980022391791C
:10C1F0000B43937105B030BD7C250020F82700204B
:10C2000010B50C0007290DD8806808F0D5FD064B45
:10C21000195703685B6C9847431E9841034B404293
:10C22000184010BD0248FCE70074020016FCFFFF36
:10C2300017FCFFFFF0B5A44C0D00A54404000793C4
:10C240009AAB1B78A14909A804930692FDF796F8CA
:10C25000200029001C3007F059F8C020800001F0B0
:10C26000F1FA08200AF084F80600002100F0AEFE82
:10C2700015ADA66000210C220EA80AF0C8F82B000C
:10C280000EAA83CA83C3924B2900EB6000233000BF
:10C290002B6108F07AFDA06808F08EFD08220021CD
:10C2A000059016A80AF0B3F814200AF061F82900E6
:10C2B0000200884B1593C8C9C8C2874B059EC3604E
:10C2C0000023A43603613368002B00D0F5E0306012
:10C2D000A06808F075FD08220021060016A80AF0E3
:10C2E00096F814200AF044F87C4B1593030086CD91
:10C2F00086C37B4BC36000230361336B002B00D0EC
:10C30000DDE03063A06808F057FD08220021050039
:10C3100016A80AF07CF814200AF02AF8714B15AE22
:10C320001593030086CE86C36F4B9835C3600023F8
:10C3300003612B68002B00D0C3E02860012504AB0B
:10C340001B7C04AA2B4308A92800137408F06FFA79
:10C35000A06808F039FD036864495B6A9847A068E3
:10C3600008F032FD036862499B699847A06808F0AD
:10C370002BFD002302680093166804992A00B04739
:10C38000049B002B0AD0200008F022FB032805DDC7
:10C39000A06808F019FD0368DB6898470EA808F04C
:10C3A00085FA2F2004ABC01808F080FA362004ABC1
:10C3B000C01808F07BFA3D20042504ABC01808F033
:10C3C00075FA0EAB0A93A06804AB5D7708F0FCFC2D
:10C3D00003680AA91B699847A06808F0EDFC036888
:10C3E0000AA95B6D9847A06808F0E6FC0368002185
:10C3F000DB6D9847A06808F0DFFC036802219B6DA5
:10C40000984700212000FFF7FBFE182009F0B0FF3D
:10C41000A16800F055FA374B374A1B68A1680393AF
:10C42000364B15A81B6800260293354B0CAF1B68D2
:10C430000193069B1B685B190093324B12681B68C3
:10C44000FFF7B4FD302009F093FF079AA16800F0D0
:10C45000F7FAA06808F0B0FC036839009B6A9847B7
:10C46000294BBE80A0680C9308F0A6FC0368390035
:10C47000DB6A98472900A06808F074FA099A092134
:10C480009378A068521908F080FAA06808F094FC2C
:10C4900032210671A068FFF76BFD04AB1B7FB3422E
:10C4A00004D0A06808F088FC08F046FA09A806F055
:10C4B000CEFE95239B009D44F0BD036107E7036119
:10C4C0001FE7036139E7C046ACFDFFFFED740200D2
:10C4D0004F480200C5C101005D48020061BC010077
:10C4E0006B48020099480200794802000DC501001E
:10C4F00041C5010078250020742500200820002077
:10C50000702500200C2000200800100013B5062222
:10C510006846FCF743FF094B1C68002C0AD06946AB
:10C5200001A806F0EBFE200001A908F072FA01A8AC
:10C5300006F08DFE684606F08AFE13BD7C250020BD
:10C54000002373B501AE0C0031000500019302F029
:10C5500019FD002802D1B278064B1A70064B1868F4
:10C56000002806D061426141044BC9B21D8008F029
:10C5700058FA73BD802000207C250020F827002079
:10C5800030B5284CA9B06A220D000DA8210009F091
:10C5900022FF0DA903A8FCF75FFF03A906A806F078
:10C5A00021FF01230193013BFF3B00930533FF3340
:10C5B000642206A92800FEF7A9F806A806F005FFE0
:10C5C000210019226A3106A809F005FF052200247E
:10C5D000110006AB04A806F02CFF04A905A806F07C
:10C5E00001FF019400942300220005A92800FDF713
:10C5F000D1FF05A806F0E9FE21002800FEF7B4F8F7
:10C6000005340520FCF788FCFF2CF5D1FA208000CA
:10C61000FCF782FC04A806F0D8FE03A806F0D5FEBD
:10C6200029B030BD7D730200F0B59C4B95B00592EA
:10C630001A68082304000391D16C06A80B43D36445
:10C640009749FCF79BFE974907A8FCF797FE220045
:10C6500000250DAE30001C3206A906F066FE07AAC2
:10C66000310008A806F061FE300006F0F0FD631C02
:10C67000DD77A06808F0A0FB03680BAF5B69984703
:10C68000300008F013F92B2004ABC01808F00EF9A5
:10C69000322004ABC01808F009F9392004ABC018E7
:10C6A00008F004F98023DB00BB80A0680B9608F03B
:10C6B00083FB036839005B6D9847A06808F07CFB3A
:10C6C000036829009B6D9847A06808F075FB070078
:10C6D00006000A371F222900380009F098FEFD776E
:10C6E000300008F020F90621A06808F03BF9089A0C
:10C6F00009219378A068043208F047F9A06808F08F
:10C700005BFBC8210571A068FFF732FCA06808F048
:10C7100053FBFF272E000581A06808F04DFB08F0B1
:10C720000BF90398FDF7CAFE2000FCF75BFB0399A9
:10C730002000FFF725FF0399200008F085F90495F4
:10C74000012563691D402DD0574909A8FCF702FF58
:10C7500009A90AA806F046FE00220AA913000192C0
:10C7600000920398FDF716FF0AA806F02EFE049B20
:10C77000002B42D1043F282F41DD0025FE2F00DC95
:10C78000049D059807F00DF8002806D00123626982
:10C790009A431300042213436361002609A806F09C
:10C7A00014FE049504226369134233D0FF210398D9
:10C7B000C826FDF7D9FF0025B600A36902229B5EBB
:10C7C000AB4222DD200029B2183006F0C4FD002360
:10C7D000010003981A007430FCF70CFF3000FCF7DE
:10C7E0009BFB039807F0E4FBC820FCF795FB0222B3
:10C7F0006369134209D10135DFE70437BBE70398CA
:10C8000007F0D6FB002FBCDDBAE7FA208000FCF76A
:10C8100083FB0026022365691D421CD006331D40A0
:10C8200024D0224909A8FCF795FE09A90AA806F018
:10C83000D9FD00220AA90192009213000398FDF786
:10C84000A9FE0AA806F0C1FD1948FCF765FB09A876
:10C8500006F0BBFD174E6420FCF75EFB164B01365D
:10C860009E4200DC6CE706F09DFB69E7134909A8CE
:10C87000FCF770FE09A90AA806F0B4FD2B002A00F7
:10C880000AA9019500950398FDF784FE0AA806F011
:10C890009CFD09A806F099FDDDE7C04600250020B3
:10C8A0001474020024740200267402006B740200E7
:10C8B000983A00008C0A00008B0A0000A87402005D
:10C8C0000022594BF0B50833060003600F0010003A
:10C8D000A9B0B1600BAB991801324870102AFAD197
:10C8E0000F3A524C1A700E32105D991A0874013AC0
:10C8F000FAD2997B5A7B09020A4331000C31039129
:10C9000025211B7813AD2B7002ABC918452302A853
:10C910001B186A821800102209F05DFD039B642138
:10C920006B610123002402AA2B7752181993093353
:10C9300013701DAB1C706D2302AA9B181C706E2314
:10C9400021009B181EA80C22EC836C621C7009F05D
:10C950005EFD374B0C22210023A8AB63EC6309F08A
:10C9600056FD344B02AAEB6446239B180322DA7768
:10C9700022002C650595347306AD2B1901345A70CD
:10C98000102CFAD101232C482B700E33195CEA1AB3
:10C990001174013BFAD211212520AA7B6B7B120274
:10C9A0000BAC13432A78638202ABC9182270C018FB
:10C9B000102209F010FD0123237505ABA3610023AC
:10C9C0003800A38308F0FCF9036821001B6898472E
:10C9D00013ABDB8BB068B38208F0F2F90022036876
:10C9E0000092B18A039ADC680123A047B06808F07E
:10C9F000E7F90700142009F0BBFC00220123040022
:10CA00000261069240C008322900079309F0E3FC56
:10CA10000A4BE360BB69002B03D13000BC6129B035
:10CA2000F0BD2361F9E7C0465C6A020001750200AF
:10CA3000414802003348020011750200A94A020071
:10CA4000F0B500260400724BDDB00833036081604E
:10CA5000C2608680867132006E4947A808F0C4F82B
:10CA6000230014330125042708931223009704950B
:10CA70000193089A330047A9039602961DA8FFF771
:10CA800031FA3200644947A808F0AEF80C232200BE
:10CA90000097103215AF0495019347A93300039610
:10CAA000029632A8FFF71EFA32005C49380008F0FF
:10CAB0009BF821001C310991042308210495019160
:10CAC000009339003300099A0396029647A8FFF7AE
:10CAD00009FA32005249380008F086F8542009F06B
:10CAE00047FC21001222042318310791049501927A
:10CAF00000930A0033003900039602960690FFF770
:10CB0000F1F9069A474B1000A262D4620AA90822E2
:10CB100030300A930B9609F05EFC434B069A099954
:10CB200093632932157026610422E661079809F0A3
:10CB300052FC04220799089809F04DFC6622032351
:10CB400004A95218D377BA225218D37787225200F9
:10CB50005218D377069A35490232D3771DAA0C9220
:10CB600032AA0D9247AA0E92069AA6850F9210A895
:10CB7000320008F039F83021452004AA5218137801
:10CB8000123104AA3B705218138811397B8204AB0E
:10CB90001022C918C01809F01EFC04230CADA068AF
:10CBA0003B75BD61BE8308F00BF9036839001B6853
:10CBB0009847822204AB9B181B885432238404AB11
:10CBC0009B181B885432A38404AB9B181B88A06855
:10CBD000638408F0F5F80700142009F0C9FB05008C
:10CBE000134B0661082210C010A91093119609F08A
:10CBF000F2FB104BEB60BB69B34206D1BD61200074
:10CC0000FCF7F0F820005DB0F0BD2B61F6E7C04600
:10CC1000686A020041750200217502003175020048
:10CC200051750200BB4B0200274B020061750200E8
:10CC3000A1CC0100514B0200F0B504000E0015001C
:10CC400085B01F000CAB1B881030019306F090FBE1
:10CC500026806580182009F08BFB02AE05003300AA
:10CC60000AAA03CA03C32F602800082700213A003C
:10CC70000C3009F0CCFB3A003100281D09F0ABFB69
:10CC8000064B02226B61200000230199A5600A4334
:10CC9000E360A2802362636205B0F0BD7B4B0200BB
:10CCA000F0B50B898DB00593CB68050004934B88D4
:10CCB000828C9A420ED1049C049B059A9B181B1BE4
:10CCC000032B39DD62882188012308A806F05AFB6E
:10CCD0000434F1E7428C9A422ED1049C049B059ABD
:10CCE0009B181B1B032B27DD2388282006936388B2
:10CCF000EF680793114B08930023099309F038FB61
:10CD0000C0236A460600029308AB03CB03C22B0084
:10CD10000699079A3000FFF78FFF3B6831005B6888
:10CD200038009847002805D0300006F046FA300059
:10CD300009F013FB0434D1E70DB0F0BD394C02000B
:10CD400070B5040090B0806807F071FF02210140C7
:10CD50001AD1A38D002B17D00C4B6A4604931023D5
:10CD6000E568A1850591029304AB41CB41C20A005D
:10CD7000230006A8FFF760FF2B6806A99B68280020
:10CD8000984706A806F019FA10B070BD394C020099
:10CD9000002815D0006041608260C3600461456175
:10CDA0008661C761444604624C46446254468462CC
:10CDB0005C46C462644604636E464663744684639C
:10CDC000002A06D0C46B043C043A25681560B442BE
:10CDD000F9D18C6BA6464E6BB546002B06D0CC6BBA
:10CDE000043C043B1D682560B442F9D10C6BA44699
:10CDF000CC6AA3468C6AA2464C6AA1460C6AA0463D
:10CE0000CF698E694D690C69CB688A680868496882
:10CE10007047006041608260C36004614561866163
:10CE2000C761444604624C464462544684625C4690
:10CE3000C462644604636E46466374468463C46B8E
:10CE4000043C043925680D60B442F9D1C76986698C
:10CE5000456904697047006041608260C360046195
:10CE600045618661C761444604624C46446254464B
:10CE700084625C46C462644604636C4644637446E0
:10CE8000846304697047846BA646446BA546046BB3
:10CE9000A446C46AA346846AA246446AA146046AB8
:10CEA000A046C769866945690469C36882680068E5
:10CEB0004168704710B5041E0CD009F0E8FA431E13
:10CEC000E3189C4208D222781978013B21705A70ED
:10CED0000134F6E7014810BD0020FCE717FCFFFF16
:10CEE000F0B585B002900C1E2AD00023C217161A86
:10CEF00056400193019B30005D1C63190A215F1E9F
:10CF0000039303F06BFF49423031397030000A213E
:10CF100003F07EFE47420600002F0FD1029B002B3C
:10CF200004DA2D23019D039A02351370002320009B
:10CF30006355FFF7BFFF380005B0F0BD0195D9E795
:10CF4000004FF8E717FCFFFF0268084B406810B578
:10CF5000C018C000101803009A4205D81C688C4203
:10CF600002D31800083BF7E710BDC046FFFFFF1FC4
:10CF700070B5002817D1114D2E68002E11D1083040
:10CF800009F0F6F9066046600D4E04003368002B88
:10CF900002D108F04CF9306023682C609B00F358F4
:10CFA0006360286870BD0122064907480B6813407A
:10CFB000F8D1026043600A60F4E7C046842500208F
:10CFC000902500208025002088250020002370B5B2
:10CFD00004000160436099420AD1064D2B68002B82
:10CFE00002D108F024F9286023689B00EB586360A5
:10CFF000200070BD90250020436810B50400002B70
:10D0000002D1044809F008F8606803681B69984772
:10D0100010BDC04671750200436810B50400002BB6
:10D0200002D1044808F0F8FF606803689B699847DC
:10D0300010BDC04671750200436810B50400002B96
:10D0400002D1044808F0E8FF606803685B6A98470B
:10D0500010BDC0467175020000487047FFFF000018
:10D06000F0B597B00593036807AD1B68049103936F
:10D0700011002B00060091C991C30024D368210040
:10D080000C220CA8EB602C6109F0C1F922000B4BBB
:10D0900010940F9311AB1C70191901344A70102CA5
:10D0A000FAD15A820193059B2A00009304990CAB94
:10D0B0003000039CA04717B0F0BDC046E74E020009
:10D0C00070B5FC30046C0500002C0DD1242009F053
:10D0D0004FF9064B44608361054B8460C460046172
:10D0E0004461C46103602864286C70BD546B020005
:10D0F0003C6C020070B5FC30C56B0400002D11D1F2
:10D10000342009F035F9084B85604360074B4561D1
:10D110000361074B0562C361064BC5628362064B20
:10D12000E0630360E06B70BD846B0200746B02000F
:10D13000E46B0200F46B0200046C02007FB503791B
:10D140001548002B22D0154E154C33782000002BAB
:10D150001CD102AD280007F0A3FE002810D16B8877
:10D16000592B0DD12B78AA88D91F012910D80092EC
:10D170000C4A2021200005F071FB0123337004E0EC
:10D1800020220949200009F089F9200004B070BD6F
:10D190000092064AEDE7C04694750200742800200C
:10D1A00054280020B6750200AE750200D375020047
:10D1B00010B50400024B08C007F052FF200010BD5C
:10D1C000746B020010B50400024B08C007F05DFF4D
:10D1D000200010BD846B0200064B70B50400036094
:10D1E0004068002804D0056909F0B7F82800F8E77E
:10D1F000200070BD646B0200064B70B50400036034
:10D200004068002804D0056909F0A7F82800F8E76D
:10D21000200070BD946B0200064B70B504000360E3
:10D220004068002804D0056909F097F82800F8E75D
:10D23000200070BDA46B0200064B70B504000360B3
:10D240004068002804D0056909F087F82800F8E74D
:10D25000200070BDE46B0200064B70B50400036053
:10D260004068002804D0056909F077F82800F8E73D
:10D27000200070BDF46B0200064B70B50400036023
:10D280004068002804D0056909F067F82800F8E72D
:10D29000200070BD886A0200064B70B50400036070
:10D2A0004068002804D0056909F057F82800F8E71D
:10D2B000200070BD986A0200064B70B50400036040
:10D2C0004068002804D0056909F047F82800F8E70D
:10D2D000200070BDA86A0200064B70B50400036010
:10D2E0004068002804D0056909F037F82800F8E7FD
:10D2F000200070BDB86A0200064B70B504000360E0
:10D300004068002804D0056909F027F82800F8E7EC
:10D31000200070BD546B020070B5FC30046C050039
:10D32000002C0DD1242009F023F8064B44608361C2
:10D33000054B8460C46004614461C4610360286477
:10D34000286C70BD546B02003C6C0200104B10B591
:10D35000083303600F4B0400C36080230E4A5B0058
:10D36000C250C018FCF780FF20000C4BB830E360BF
:10D37000FFF7B2FF2000AC30FFF79EFF2000A03087
:10D38000FFF78AFF20006C30FFF776FF200010BD0A
:10D39000686C0200E06C0200086E0200C86A0200BD
:10D3A000F8B505000400AC356B68AB60A8680028D0
:10D3B00007D0C36821009847AB68002BF4D01B69E5
:10D3C000F3E72500B0352868002804D0066908F086
:10D3D000C4FF3000F8E72200FC212860583213789F
:10D3E0000B40137023005C33187020000A3007F0E4
:10D3F00015FF2000343007F011FF606E002804D0C4
:10D40000056908F0AAFF2800F8E72500983560664E
:10D410002868002804D0066908F09FFF3000F8E76C
:10D420002600A43628603568002D05D02F69280015
:10D4300008F093FF3D00F7E72000356029000C223B
:10D440006C3008F0E4FF2000074BE567A367290074
:10D450000C22803008F0DBFF2300044A8C33903428
:10D4600028001A602560F8BDCB4E0200BD4E0200B8
:10D47000444AF0B50600C260A022434B163608337A
:10D4800003600100002342820400320085B0037172
:10D490008360037483823531137001329142FBD172
:10D4A000802580222000AD00D201F3773584110061
:10D4B00000933830002300F035FF23002100403373
:10D4C00003931A002B0000255F31157001328A4248
:10D4D000FBD1039AFC21D5772200603213801379A7
:10D4E00020000B401371230068331D70274B256704
:10D4F000E3660C220021783008F089FF2300270022
:10D5000088331D60224B0837FB67843700210C22CB
:10D51000380008F07CFF1F4B1F4AFB602300A0333C
:10D520003D611A601D4A5D60DA601D4A1D619A61A5
:10D53000DD61300007F072FE039807F06FFE194BB3
:10D54000601CE3602300C4331D705D709D70FF306C
:10D5500002F052FD8C235B00E55023001933FF33AA
:10D560005D618023104A5B00E2502300012220000D
:10D57000FE3352425A86023B9D63DD631D6405B053
:10D58000F0BDC046C86A0200686C0200886A0200EA
:10D59000CB4E0200BD4E0200986A0200A86A02004B
:10D5A000B86A0200E06C0200086E020070B5074C19
:10D5B0002368002B07D1A020400008F0D9FE050009
:10D5C000FFF756FF2560206870BDC04694250020F7
:10D5D00070B50C220D000021040008F018FF002394
:10D5E0002361024B25602000E36070BDD94E02002C
:10D5F00070B500250400254B85800360244BC56071
:10D600008360244B85614361234B45620362234B56
:10D610000563C362224BC563836329004430FFF76F
:10D62000D7FF200029005830FFF7D2FF2000290043
:10D630006C30FFF7CDFF1B4B2200236023008032AC
:10D64000F83320C29342FCD126001D00E936FF3694
:10D65000280008220021083508F0D9FEAE42F7D193
:10D660008E2300229B00E11804C6B142FCD18E2318
:10D6700000219B00E2540C4B0C4AE318A2181980BD
:10D6800002339A42FBD1200070BDC046B46B020049
:10D69000646B0200746B0200846B0200946B0200E6
:10D6A000A46B0200B06C02003A02000062020000AB
:10D6B00010B5040002F0E4F8034B1B68002B01D006
:10D6C0002000984710BDC0469C250020F0B58BB0C7
:10D6D000050001F097FA0020FFF768FF03680700D4
:10D6E0001B6998473B6804009B69380098473B6872
:10D6F00006005B6A380098470300288810380B281A
:10D7000061D803F0F1F9063D6060605A60606066C0
:10D710006078AF882000390008F08DF922006B7B1B
:10D72000583201931378A8799C46022361460B4333
:10D73000137004AB1F80012304AA93701300D070F0
:10D74000019AE91D9A722B000622163305A8099347
:10D7500008F041FE29000B2004AB06220E31C01850
:10D7600008F039FE94346368A360A06800282AD0CA
:10D77000C36804A99847A368002BF4D01B69F3E79A
:10D7800020002F49AF8808F056F9220002205832B5
:10D790001378A9798343137004AB1F809970A03468
:10D7A0006368A360A06800280DD0C36804A99847E7
:10D7B000A368002BF4D01B69F3E75B69A888A91D57
:10D7C000002B00D098472900300007F09AFE0BB0DC
:10D7D000F0BD636E002BF6D0AF79A366A06E002873
:10D7E000F1D0C36839009847A36E002B01D1636E56
:10D7F000F3E71B69F1E7012269460D27AB7BEF5781
:10D800001A4001925A07920FDB080A720B73062224
:10D81000E91D04A808F0DFFD019A04ABDA716A463D
:10D82000127A9F711A726A46127B20005A722B007C
:10D830000F3307938C348030236804A99847C2E7DC
:10D84000FFFF00000723D72802D9024B18600023EE
:10D850001800704798250020014B18607047C0469B
:10D860009C2500201FB58022A323D205DB00D358BE
:10D870000820DB0700D405301C4B48221C4901F06E
:10D88000FBFB00280AD080B2002807D1BFF34F8FDE
:10D89000184B194ADA60BFF34F8FFEE7002302A846
:10D8A000029301330370154B1B68436007F045FD7D
:10D8B000002802D0072005B000BD684607F03BFDF8
:10D8C0000028F7D1694607F034FD0028F2D10C4852
:10D8D00001F002FC80B20028EDD10A4801F006FCFC
:10D8E00080B20028E7D100F01FF8E4E73F530200C0
:10D8F000A025002000ED00E00400FA059825002096
:10D90000CDD60100B1D6010080B2002807D1BFF307
:10D910004F8F034B034ADA60BFF34F8FFEE7704728
:10D9200000ED00E00400FA051FB5002302ACA3805F
:10D93000104B01A80293C8235B00E380803BFF3BB0
:10D94000037005220C4907F006FD80B200280FD1B4
:10D950008020800007F0FBFC80B2002808D1200066
:10D9600007F0F7FC80B2002802D107F0EEFC80B28D
:10D9700004B010BD28009001F875020013B50468CA
:10D980000093A46813000A000149A04716BDC046D1
:10D99000FFFF000037B506AC2578046801950093B9
:10D9A000246913000A000149A0473EBDFFFF0000A3
:10D9B000F0B587B00D00002469466F4616004C8014
:10D9C0000DAA0CA90988127839800193A2421BD1B3
:10D9D00001004479F83194420DD908310F00083F15
:10D9E0003F88B7421BD130212032920012580132B9
:10D9F000D27F0A4215D16A463100280007F0AFFCF9
:10DA0000002808D1062407E06A463100280007F004
:10DA1000A6FC002800D00324200007B0F0BD01328E
:10DA2000D9E710210A4051424A41002002ACE3608C
:10DA30000CABA360174B01322680A270A0809D42E0
:10DA400007D1FFF7B3FD03681B69984707F0F6FF9E
:10DA500005002100280007F086FC002482B2A242C3
:10DA6000DAD0112A13D00BD8082ACBD06A4631005D
:10DA7000280007F074FC05240028CDD0023CCBE739
:10DA8000054B9A4203D0054B9A42EFD1BAE70524E1
:10DA9000C2E7C046FFFF0000033000000134000071
:10DAA000F0B5050099B008002E240C9100F0B6FBEB
:10DAB00006ABE4181290220012A9012007F04DFCD9
:10DAC000002802D0032019B0F0BD23880C9A0B90D7
:10DAD00093830C9B0B9A1B7D934200D8C6E06B7915
